{
  "contractName": "Faucet",
  "abi": [
    {
      "constant": true,
      "inputs": [],
      "name": "rate",
      "outputs": [
        {
          "name": "",
          "type": "uint256"
        }
      ],
      "payable": false,
      "stateMutability": "view",
      "type": "function"
    },
    {
      "constant": true,
      "inputs": [],
      "name": "decimals",
      "outputs": [
        {
          "name": "",
          "type": "uint256"
        }
      ],
      "payable": false,
      "stateMutability": "view",
      "type": "function"
    },
    {
      "constant": true,
      "inputs": [],
      "name": "owner",
      "outputs": [
        {
          "name": "",
          "type": "address"
        }
      ],
      "payable": false,
      "stateMutability": "view",
      "type": "function"
    },
    {
      "constant": true,
      "inputs": [],
      "name": "tokenAddress",
      "outputs": [
        {
          "name": "",
          "type": "address"
        }
      ],
      "payable": false,
      "stateMutability": "view",
      "type": "function"
    },
    {
      "inputs": [
        {
          "name": "_token",
          "type": "address"
        },
        {
          "name": "_owner",
          "type": "address"
        }
      ],
      "payable": false,
      "stateMutability": "nonpayable",
      "type": "constructor"
    },
    {
      "anonymous": false,
      "inputs": [
        {
          "indexed": false,
          "name": "n1",
          "type": "uint256"
        },
        {
          "indexed": false,
          "name": "n2",
          "type": "uint256"
        }
      ],
      "name": "Log",
      "type": "event"
    },
    {
      "constant": false,
      "inputs": [],
      "name": "buyZap",
      "outputs": [],
      "payable": true,
      "stateMutability": "payable",
      "type": "function"
    },
    {
      "constant": false,
      "inputs": [
        {
          "name": "_owner",
          "type": "address"
        }
      ],
      "name": "setOwner",
      "outputs": [],
      "payable": false,
      "stateMutability": "nonpayable",
      "type": "function"
    },
    {
      "constant": false,
      "inputs": [],
      "name": "withdrawTok",
      "outputs": [],
      "payable": false,
      "stateMutability": "nonpayable",
      "type": "function"
    },
    {
      "constant": false,
      "inputs": [],
      "name": "withdrawEther",
      "outputs": [],
      "payable": false,
      "stateMutability": "nonpayable",
      "type": "function"
    }
  ],
  "bytecode": "0x6080604052670de0b6b3a76400006003556103e860035460010281151561002257fe5b0460045534801561003257600080fd5b50604051604080610ade833981018060405281019080805190602001909291908051906020019092919050505081600260006101000a81548173ffffffffffffffffffffffffffffffffffffffff021916908373ffffffffffffffffffffffffffffffffffffffff160217905550816000806101000a81548173ffffffffffffffffffffffffffffffffffffffff021916908373ffffffffffffffffffffffffffffffffffffffff16021790555080600160006101000a81548173ffffffffffffffffffffffffffffffffffffffff021916908373ffffffffffffffffffffffffffffffffffffffff16021790555050506109ac806101326000396000f30060806040526004361061008e576000357c0100000000000000000000000000000000000000000000000000000000900463ffffffff1680630f33a2a91461009357806313af4035146100aa5780632c4e722e146100ed578063313ce567146101185780637362377b1461014357806385a33e751461015a5780638da5cb5b146101645780639d76ea58146101bb575b600080fd5b34801561009f57600080fd5b506100a8610212565b005b3480156100b657600080fd5b506100eb600480360381019080803573ffffffffffffffffffffffffffffffffffffffff1690602001909291905050506104e4565b005b3480156100f957600080fd5b506101026105c0565b6040518082815260200191505060405180910390f35b34801561012457600080fd5b5061012d6105c6565b6040518082815260200191505060405180910390f35b34801561014f57600080fd5b506101586105cc565b005b610162610706565b005b34801561017057600080fd5b50610179610934565b604051808273ffffffffffffffffffffffffffffffffffffffff1673ffffffffffffffffffffffffffffffffffffffff16815260200191505060405180910390f35b3480156101c757600080fd5b506101d061095a565b604051808273ffffffffffffffffffffffffffffffffffffffff1673ffffffffffffffffffffffffffffffffffffffff16815260200191505060405180910390f35b600160009054906101000a900473ffffffffffffffffffffffffffffffffffffffff1673ffffffffffffffffffffffffffffffffffffffff163373ffffffffffffffffffffffffffffffffffffffff1614151561026e57600080fd5b3373ffffffffffffffffffffffffffffffffffffffff16600160009054906101000a900473ffffffffffffffffffffffffffffffffffffffff1673ffffffffffffffffffffffffffffffffffffffff161415156102ca57600080fd5b6000809054906101000a900473ffffffffffffffffffffffffffffffffffffffff1673ffffffffffffffffffffffffffffffffffffffff1663a9059cbb600160009054906101000a900473ffffffffffffffffffffffffffffffffffffffff166000809054906101000a900473ffffffffffffffffffffffffffffffffffffffff1673ffffffffffffffffffffffffffffffffffffffff166370a08231306040518263ffffffff167c0100000000000000000000000000000000000000000000000000000000028152600401808273ffffffffffffffffffffffffffffffffffffffff1673ffffffffffffffffffffffffffffffffffffffff168152602001915050602060405180830381600087803b1580156103e657600080fd5b505af11580156103fa573d6000803e3d6000fd5b505050506040513d602081101561041057600080fd5b81019080805190602001909291905050506040518363ffffffff167c0100000000000000000000000000000000000000000000000000000000028152600401808373ffffffffffffffffffffffffffffffffffffffff1673ffffffffffffffffffffffffffffffffffffffff16815260200182815260200192505050602060405180830381600087803b1580156104a657600080fd5b505af11580156104ba573d6000803e3d6000fd5b505050506040513d60208110156104d057600080fd5b810190808051906020019092919050505050565b600160009054906101000a900473ffffffffffffffffffffffffffffffffffffffff1673ffffffffffffffffffffffffffffffffffffffff163373ffffffffffffffffffffffffffffffffffffffff1614151561054057600080fd5b600073ffffffffffffffffffffffffffffffffffffffff168173ffffffffffffffffffffffffffffffffffffffff161415151561057c57600080fd5b80600160006101000a81548173ffffffffffffffffffffffffffffffffffffffff021916908373ffffffffffffffffffffffffffffffffffffffff16021790555050565b60045481565b60035481565b600160009054906101000a900473ffffffffffffffffffffffffffffffffffffffff1673ffffffffffffffffffffffffffffffffffffffff163373ffffffffffffffffffffffffffffffffffffffff1614151561062857600080fd5b3373ffffffffffffffffffffffffffffffffffffffff16600160009054906101000a900473ffffffffffffffffffffffffffffffffffffffff1673ffffffffffffffffffffffffffffffffffffffff1614151561068457600080fd5b600160009054906101000a900473ffffffffffffffffffffffffffffffffffffffff1673ffffffffffffffffffffffffffffffffffffffff166108fc3073ffffffffffffffffffffffffffffffffffffffff16319081150290604051600060405180830381858888f19350505050158015610703573d6000803e3d6000fd5b50565b60008034111561092c576004543481151561071d57fe5b049050600354810290506000809054906101000a900473ffffffffffffffffffffffffffffffffffffffff1673ffffffffffffffffffffffffffffffffffffffff166370a08231306040518263ffffffff167c0100000000000000000000000000000000000000000000000000000000028152600401808273ffffffffffffffffffffffffffffffffffffffff1673ffffffffffffffffffffffffffffffffffffffff168152602001915050602060405180830381600087803b1580156107e357600080fd5b505af11580156107f7573d6000803e3d6000fd5b505050506040513d602081101561080d57600080fd5b810190808051906020019092919050505081111515610927576000809054906101000a900473ffffffffffffffffffffffffffffffffffffffff1673ffffffffffffffffffffffffffffffffffffffff1663a9059cbb33836040518363ffffffff167c0100000000000000000000000000000000000000000000000000000000028152600401808373ffffffffffffffffffffffffffffffffffffffff1673ffffffffffffffffffffffffffffffffffffffff16815260200182815260200192505050602060405180830381600087803b1580156108ea57600080fd5b505af11580156108fe573d6000803e3d6000fd5b505050506040513d602081101561091457600080fd5b8101908080519060200190929190505050505b610931565b600080fd5b50565b600160009054906101000a900473ffffffffffffffffffffffffffffffffffffffff1681565b600260009054906101000a900473ffffffffffffffffffffffffffffffffffffffff16815600a165627a7a72305820f538749021922a31a89f494c1c34e73eaef3c999d8d37303dac75e4bfe190bea0029",
  "source": "pragma solidity ^0.4.18;\n\ncontract Token {\n    function transfer(address to, uint256 amount) public returns (bool);\n    function balanceOf(address addr) public view returns (uint256);\n}\n            \ncontract Faucet {\n    Token token;\n    address public owner;\n    address public tokenAddress;\n\n    uint public decimals = 10 ** 18;\n    uint public rate = 1 * decimals / 1000; //change to whatever\n\n    // 1: 1000 ratio\n    \n    modifier ownerOnly {\n        require(msg.sender == owner); \n        _;\n    }\n           \n    constructor(address _token, address _owner) public {\n        tokenAddress = _token;\n        token = Token(_token);\n        owner = _owner;\n    }\n    \n    event Log(uint256 n1, uint256 n2);\n    \n    function buyZap() public payable {\n        if(msg.value > 0) {\n            uint256 amt = (msg.value / rate);\n            amt = amt * decimals;\n            if(amt <= token.balanceOf(this))\n                token.transfer(msg.sender, amt);                \n        }\n        else {\n            revert();\n        }\n    }\n  \n    function setOwner(address _owner) public ownerOnly {\n        require(_owner != address(0));\n        owner = _owner;\n    }\n    \n    function withdrawTok() public ownerOnly {\n        if (owner != msg.sender) revert();\n        token.transfer(owner, token.balanceOf(this));        \n    }\n    \n    function withdrawEther() public ownerOnly {\n        if (owner != msg.sender) revert();\n        owner.transfer(address(this).balance);\n    }   \n}\n",
  "sourcePath": "/home/kim/ZAP/ZAPJS/node_modules/zap_contracts/contracts/token/Faucet.sol",
  "compiler": {
    "name": "solc",
    "version": "0.4.24+commit.e67f0147.Emscripten.clang"
  },
  "schemaVersion": "2.0.1",
  "updatedAt": "2018-07-13T18:39:23.607Z"
}